:1000000000308A00692800000A108A100A1182074D
:100010004534733463347234653476346534203453
:100020004C3469346E3468346134203431340034F3
:100030000A108A100A11820745347334633472340B
:1000400065347634653420344C3469346E34683425
:1000500061342034323400342430840083130008A7
:10006000031940280130F800F701F70B3528F80B89
:1000700034284A30F700F70B3B283E28800B322803
:100080000800871022088600871587110530A40014
:100090002C2008000A30A4002C203830A200412077
:1000A0003830A20041200C30A20041200130A200D3
:1000B00041200130A4002C208A110A127C288714C8
:1000C00023088600871587110130A4002C20871093
:1000D000080003081F39830083161F149F141F157F
:1000E0009F1183138312A1010030831686008700BD
:1000F0008312860187014A280130A2004120A10114
:1001000021080420003A03198C2821080420A200A9
:10011000A3005F20A10A8028C030A2004120A101D5
:1001200021081820003A03199C2821081820A20051
:0A013000A3005F20A10A90286300DD
:02400E00313F40
:00000001FF
;PIC16F877
;CRC=7015  CREATED="22-set-21 20:39"
